{
  "contractName": "Subscription",
  "abi": [
    {
      "inputs": [
        {
          "internalType": "uint256",
          "name": "_price",
          "type": "uint256"
        },
        {
          "internalType": "uint256",
          "name": "_billingPeriod",
          "type": "uint256"
        }
      ],
      "stateMutability": "nonpayable",
      "type": "constructor"
    },
    {
      "anonymous": false,
      "inputs": [
        {
          "indexed": false,
          "internalType": "uint256",
          "name": "oldPeriod",
          "type": "uint256"
        },
        {
          "indexed": false,
          "internalType": "uint256",
          "name": "newPeriod",
          "type": "uint256"
        }
      ],
      "name": "BillingPeriodUpdated",
      "type": "event"
    },
    {
      "anonymous": false,
      "inputs": [
        {
          "indexed": true,
          "internalType": "address",
          "name": "subscriber",
          "type": "address"
        },
        {
          "indexed": false,
          "internalType": "uint256",
          "name": "atTimestamp",
          "type": "uint256"
        }
      ],
      "name": "Cancelled",
      "type": "event"
    },
    {
      "anonymous": false,
      "inputs": [
        {
          "indexed": false,
          "internalType": "uint256",
          "name": "oldPrice",
          "type": "uint256"
        },
        {
          "indexed": false,
          "internalType": "uint256",
          "name": "newPrice",
          "type": "uint256"
        }
      ],
      "name": "PriceUpdated",
      "type": "event"
    },
    {
      "anonymous": false,
      "inputs": [
        {
          "indexed": true,
          "internalType": "address",
          "name": "subscriber",
          "type": "address"
        },
        {
          "indexed": false,
          "internalType": "uint256",
          "name": "expiry",
          "type": "uint256"
        }
      ],
      "name": "Renewed",
      "type": "event"
    },
    {
      "anonymous": false,
      "inputs": [
        {
          "indexed": true,
          "internalType": "address",
          "name": "subscriber",
          "type": "address"
        },
        {
          "indexed": false,
          "internalType": "uint256",
          "name": "expiry",
          "type": "uint256"
        }
      ],
      "name": "Subscribed",
      "type": "event"
    },
    {
      "anonymous": false,
      "inputs": [
        {
          "indexed": true,
          "internalType": "address",
          "name": "creator",
          "type": "address"
        },
        {
          "indexed": false,
          "internalType": "uint256",
          "name": "amount",
          "type": "uint256"
        }
      ],
      "name": "Withdrawn",
      "type": "event"
    },
    {
      "stateMutability": "payable",
      "type": "fallback",
      "payable": true
    },
    {
      "inputs": [],
      "name": "billingPeriod",
      "outputs": [
        {
          "internalType": "uint256",
          "name": "",
          "type": "uint256"
        }
      ],
      "stateMutability": "view",
      "type": "function",
      "constant": true
    },
    {
      "inputs": [],
      "name": "creator",
      "outputs": [
        {
          "internalType": "address",
          "name": "",
          "type": "address"
        }
      ],
      "stateMutability": "view",
      "type": "function",
      "constant": true
    },
    {
      "inputs": [
        {
          "internalType": "address",
          "name": "",
          "type": "address"
        }
      ],
      "name": "expiry",
      "outputs": [
        {
          "internalType": "uint256",
          "name": "",
          "type": "uint256"
        }
      ],
      "stateMutability": "view",
      "type": "function",
      "constant": true
    },
    {
      "inputs": [],
      "name": "price",
      "outputs": [
        {
          "internalType": "uint256",
          "name": "",
          "type": "uint256"
        }
      ],
      "stateMutability": "view",
      "type": "function",
      "constant": true
    },
    {
      "stateMutability": "payable",
      "type": "receive",
      "payable": true
    },
    {
      "inputs": [],
      "name": "subscribe",
      "outputs": [],
      "stateMutability": "payable",
      "type": "function",
      "payable": true
    },
    {
      "inputs": [],
      "name": "renew",
      "outputs": [],
      "stateMutability": "payable",
      "type": "function",
      "payable": true
    },
    {
      "inputs": [],
      "name": "cancel",
      "outputs": [],
      "stateMutability": "nonpayable",
      "type": "function"
    },
    {
      "inputs": [
        {
          "internalType": "address",
          "name": "account",
          "type": "address"
        }
      ],
      "name": "isActive",
      "outputs": [
        {
          "internalType": "bool",
          "name": "",
          "type": "bool"
        }
      ],
      "stateMutability": "view",
      "type": "function",
      "constant": true
    },
    {
      "inputs": [
        {
          "internalType": "address",
          "name": "account",
          "type": "address"
        }
      ],
      "name": "secondsRemaining",
      "outputs": [
        {
          "internalType": "uint256",
          "name": "",
          "type": "uint256"
        }
      ],
      "stateMutability": "view",
      "type": "function",
      "constant": true
    },
    {
      "inputs": [],
      "name": "withdraw",
      "outputs": [],
      "stateMutability": "nonpayable",
      "type": "function"
    },
    {
      "inputs": [
        {
          "internalType": "uint256",
          "name": "newPrice",
          "type": "uint256"
        }
      ],
      "name": "updatePrice",
      "outputs": [],
      "stateMutability": "nonpayable",
      "type": "function"
    },
    {
      "inputs": [
        {
          "internalType": "uint256",
          "name": "newPeriod",
          "type": "uint256"
        }
      ],
      "name": "updateBillingPeriod",
      "outputs": [],
      "stateMutability": "nonpayable",
      "type": "function"
    }
  ],
  "bytecode": "0x60806040523480156200001157600080fd5b506040516200147538038062001475833981810160405281019062000037919062000159565b600082116200007d576040517f08c379a0000000000000000000000000000000000000000000000000000000008152600401620000749062000201565b60405180910390fd5b60008111620000c3576040517f08c379a0000000000000000000000000000000000000000000000000000000008152600401620000ba9062000273565b60405180910390fd5b336000806101000a81548173ffffffffffffffffffffffffffffffffffffffff021916908373ffffffffffffffffffffffffffffffffffffffff1602179055508160018190555080600281905550505062000295565b600080fd5b6000819050919050565b62000133816200011e565b81146200013f57600080fd5b50565b600081519050620001538162000128565b92915050565b6000806040838503121562000173576200017262000119565b5b6000620001838582860162000142565b9250506020620001968582860162000142565b9150509250929050565b600082825260208201905092915050565b7f5072696365206d757374206265203e2030000000000000000000000000000000600082015250565b6000620001e9601183620001a0565b9150620001f682620001b1565b602082019050919050565b600060208201905081810360008301526200021c81620001da565b9050919050565b7f42696c6c696e6720706572696f64206d757374206265203e2030000000000000600082015250565b60006200025b601a83620001a0565b9150620002688262000223565b602082019050919050565b600060208201905081810360008301526200028e816200024c565b9050919050565b6111d080620002a56000396000f3fe6080604052600436106100ab5760003560e01c80636d786740116100645780636d786740146102155780638d6cc56d146102405780638f449a05146102695780639f8a13d714610273578063a035b1fe146102b0578063ea8a1af0146102db576100eb565b806302d05d3f146101265780630d932e701461015157806323d70c731461015b57806324a0f523146101985780633ccfd60b146101d55780636719cd15146101ec576100eb565b366100eb576040517f08c379a00000000000000000000000000000000000000000000000000000000081526004016100e290610c03565b60405180910390fd5b6040517f08c379a000000000000000000000000000000000000000000000000000000000815260040161011d90610c03565b60405180910390fd5b34801561013257600080fd5b5061013b6102f2565b6040516101489190610c64565b60405180910390f35b610159610316565b005b34801561016757600080fd5b50610182600480360381019061017d9190610cb0565b610417565b60405161018f9190610cf6565b60405180910390f35b3480156101a457600080fd5b506101bf60048036038101906101ba9190610cb0565b6104bb565b6040516101cc9190610cf6565b60405180910390f35b3480156101e157600080fd5b506101ea6104d3565b005b3480156101f857600080fd5b50610213600480360381019061020e9190610d3d565b6106f2565b005b34801561022157600080fd5b5061022a61080e565b6040516102379190610cf6565b60405180910390f35b34801561024c57600080fd5b5061026760048036038101906102629190610d3d565b610814565b005b610271610930565b005b34801561027f57600080fd5b5061029a60048036038101906102959190610cb0565b610a9a565b6040516102a79190610d85565b60405180910390f35b3480156102bc57600080fd5b506102c5610ae5565b6040516102d29190610cf6565b60405180910390f35b3480156102e757600080fd5b506102f0610aeb565b005b60008054906101000a900473ffffffffffffffffffffffffffffffffffffffff1681565b600154341461035a576040517f08c379a000000000000000000000000000000000000000000000000000000000815260040161035190610dec565b60405180910390fd5b3073ffffffffffffffffffffffffffffffffffffffff16638f449a056040518163ffffffff1660e01b8152600401600060405180830381600087803b1580156103a257600080fd5b505af11580156103b6573d6000803e3d6000fd5b505050503373ffffffffffffffffffffffffffffffffffffffff167f149b8ef5614c26b28a55bb6a04b1b9ca363691c31302c66a7c6a32c91c0653ce600254426104009190610e3b565b60405161040d9190610cf6565b60405180910390a2565b600042600360008473ffffffffffffffffffffffffffffffffffffffff1673ffffffffffffffffffffffffffffffffffffffff168152602001908152602001600020541161046857600090506104b6565b42600360008473ffffffffffffffffffffffffffffffffffffffff1673ffffffffffffffffffffffffffffffffffffffff168152602001908152602001600020546104b39190610e6f565b90505b919050565b60036020528060005260406000206000915090505481565b60008054906101000a900473ffffffffffffffffffffffffffffffffffffffff1673ffffffffffffffffffffffffffffffffffffffff163373ffffffffffffffffffffffffffffffffffffffff1614610561576040517f08c379a000000000000000000000000000000000000000000000000000000000815260040161055890610eef565b60405180910390fd5b60006004549050600081116105ab576040517f08c379a00000000000000000000000000000000000000000000000000000000081526004016105a290610f5b565b60405180910390fd5b600060048190555060008060009054906101000a900473ffffffffffffffffffffffffffffffffffffffff1673ffffffffffffffffffffffffffffffffffffffff16826040516105fa90610fac565b60006040518083038185875af1925050503d8060008114610637576040519150601f19603f3d011682016040523d82523d6000602084013e61063c565b606091505b5050905080610680576040517f08c379a00000000000000000000000000000000000000000000000000000000081526004016106779061100d565b60405180910390fd5b60008054906101000a900473ffffffffffffffffffffffffffffffffffffffff1673ffffffffffffffffffffffffffffffffffffffff167f7084f5476618d8e60b11ef0d7d3f06914655adb8793e28ff7f018d4c76d505d5836040516106e69190610cf6565b60405180910390a25050565b60008054906101000a900473ffffffffffffffffffffffffffffffffffffffff1673ffffffffffffffffffffffffffffffffffffffff163373ffffffffffffffffffffffffffffffffffffffff1614610780576040517f08c379a000000000000000000000000000000000000000000000000000000000815260040161077790610eef565b60405180910390fd5b600081116107c3576040517f08c379a00000000000000000000000000000000000000000000000000000000081526004016107ba90611079565b60405180910390fd5b60006002549050816002819055507fb35130a65a2bf6ce6dd4507141ca32e41cfbd3892be1244ff0db22143b9f7c748183604051610802929190611099565b60405180910390a15050565b60025481565b60008054906101000a900473ffffffffffffffffffffffffffffffffffffffff1673ffffffffffffffffffffffffffffffffffffffff163373ffffffffffffffffffffffffffffffffffffffff16146108a2576040517f08c379a000000000000000000000000000000000000000000000000000000000815260040161089990610eef565b60405180910390fd5b600081116108e5576040517f08c379a00000000000000000000000000000000000000000000000000000000081526004016108dc9061110e565b60405180910390fd5b60006001549050816001819055507f945c1c4e99aa89f648fbfe3df471b916f719e16d960fcec0737d4d56bd6968388183604051610924929190611099565b60405180910390a15050565b6001543414610974576040517f08c379a000000000000000000000000000000000000000000000000000000000815260040161096b9061117a565b60405180910390fd5b60004290506000600360003373ffffffffffffffffffffffffffffffffffffffff1673ffffffffffffffffffffffffffffffffffffffff168152602001908152602001600020549050818110156109da57600254826109d39190610e3b565b90506109eb565b600254816109e89190610e3b565b90505b80600360003373ffffffffffffffffffffffffffffffffffffffff1673ffffffffffffffffffffffffffffffffffffffff168152602001908152602001600020819055503460046000828254610a419190610e3b565b925050819055503373ffffffffffffffffffffffffffffffffffffffff167f4b90d6788928d63c1821907a6a8b95f40d26562d8fe41b105f7489db9966dfcb82604051610a8e9190610cf6565b60405180910390a25050565b600042600360008473ffffffffffffffffffffffffffffffffffffffff1673ffffffffffffffffffffffffffffffffffffffff16815260200190815260200160002054119050919050565b60015481565b6000600360003373ffffffffffffffffffffffffffffffffffffffff1673ffffffffffffffffffffffffffffffffffffffff168152602001908152602001600020819055503373ffffffffffffffffffffffffffffffffffffffff167f36ea5cd5608625e789af0282eecdb4eae1cb7c1cf6d0ec3f9a84f35be850260b42604051610b769190610cf6565b60405180910390a2565b600082825260208201905092915050565b7f446972656374206465706f73697473206e6f7420616c6c6f7765643b2063616c60008201527f6c20737562736372696265282900000000000000000000000000000000000000602082015250565b6000610bed602d83610b80565b9150610bf882610b91565b604082019050919050565b60006020820190508181036000830152610c1c81610be0565b9050919050565b600073ffffffffffffffffffffffffffffffffffffffff82169050919050565b6000610c4e82610c23565b9050919050565b610c5e81610c43565b82525050565b6000602082019050610c796000830184610c55565b92915050565b600080fd5b610c8d81610c43565b8114610c9857600080fd5b50565b600081359050610caa81610c84565b92915050565b600060208284031215610cc657610cc5610c7f565b5b6000610cd484828501610c9b565b91505092915050565b6000819050919050565b610cf081610cdd565b82525050565b6000602082019050610d0b6000830184610ce7565b92915050565b610d1a81610cdd565b8114610d2557600080fd5b50565b600081359050610d3781610d11565b92915050565b600060208284031215610d5357610d52610c7f565b5b6000610d6184828501610d28565b91505092915050565b60008115159050919050565b610d7f81610d6a565b82525050565b6000602082019050610d9a6000830184610d76565b92915050565b7f496e636f72726563742045544820616d6f756e74000000000000000000000000600082015250565b6000610dd6601483610b80565b9150610de182610da0565b602082019050919050565b60006020820190508181036000830152610e0581610dc9565b9050919050565b7f4e487b7100000000000000000000000000000000000000000000000000000000600052601160045260246000fd5b6000610e4682610cdd565b9150610e5183610cdd565b9250828201905080821115610e6957610e68610e0c565b5b92915050565b6000610e7a82610cdd565b9150610e8583610cdd565b9250828203905081811115610e9d57610e9c610e0c565b5b92915050565b7f4f6e6c792063726561746f720000000000000000000000000000000000000000600082015250565b6000610ed9600c83610b80565b9150610ee482610ea3565b602082019050919050565b60006020820190508181036000830152610f0881610ecc565b9050919050565b7f4e6f2066756e6473000000000000000000000000000000000000000000000000600082015250565b6000610f45600883610b80565b9150610f5082610f0f565b602082019050919050565b60006020820190508181036000830152610f7481610f38565b9050919050565b600081905092915050565b50565b6000610f96600083610f7b565b9150610fa182610f86565b600082019050919050565b6000610fb782610f89565b9150819050919050565b7f5472616e73666572206661696c65640000000000000000000000000000000000600082015250565b6000610ff7600f83610b80565b915061100282610fc1565b602082019050919050565b6000602082019050818103600083015261102681610fea565b9050919050565b7f42696c6c696e6720706572696f64203e20300000000000000000000000000000600082015250565b6000611063601283610b80565b915061106e8261102d565b602082019050919050565b6000602082019050818103600083015261109281611056565b9050919050565b60006040820190506110ae6000830185610ce7565b6110bb6020830184610ce7565b9392505050565b7f5072696365206d757374206265203e2030000000000000000000000000000000600082015250565b60006110f8601183610b80565b9150611103826110c2565b602082019050919050565b60006020820190508181036000830152611127816110eb565b9050919050565b7f53656e6420657861637420707269636500000000000000000000000000000000600082015250565b6000611164601083610b80565b915061116f8261112e565b602082019050919050565b6000602082019050818103600083015261119381611157565b905091905056fea2646970667358221220f2302245457bc238dccf2d716a1e3232346fb1734b0fe825ccb1932a5cafe01964736f6c63430008130033",
  "immutableReferences": {},
  "source": "// SPDX-License-Identifier: MIT\npragma solidity ^0.8.19;\n\n/// @title SubscriptionContract  simple ETH-based subscription manager\n/// @notice Deployed by a Creator who defines price & billing period. Subscribers pay ETH to subscribe/renew.\n/// @dev Only creator can change price/billing period or withdraw accumulated funds.\ncontract Subscription {\n\n    ///Creator (content owner) who deployed this contract\n    address public creator;\n\n    ///price per billingPeriod (in wei)\n    uint256 public price;\n\n    ///billing period length in seconds (e.g., 30 days = 30*24*3600)\n    uint256 public billingPeriod;\n\n    ///mapping of subscriber -> subscription expiry timestamp (unix)\n    mapping(address => uint256) public expiry;\n\n    ///accumulated ETH from subscriptions awaiting withdrawal by creator\n    uint256 private accumulated;\n\n    event Subscribed(address indexed subscriber, uint256 expiry);\n    event Renewed(address indexed subscriber, uint256 expiry);\n    event Cancelled(address indexed subscriber, uint256 atTimestamp);\n    event Withdrawn(address indexed creator, uint256 amount);\n    event PriceUpdated(uint256 oldPrice, uint256 newPrice);\n    event BillingPeriodUpdated(uint256 oldPeriod, uint256 newPeriod);\n\n\n    modifier onlyCreator() {\n        require(msg.sender == creator, \"Only creator\");\n        _;\n    }\n\n\n    ///_price price in wei for one billingPeriod\n    ///_billingPeriod length of billing period in seconds\n    constructor(uint256 _price, uint256 _billingPeriod) {\n        require(_price > 0, \"Price must be > 0\");\n        require(_billingPeriod > 0, \"Billing period must be > 0\");\n        creator = msg.sender;\n        price = _price;\n        billingPeriod = _billingPeriod;\n   }\n\n\n    /* ========== SUBSCRIPTION ACTIONS ========== */\n\n    ///Subscribe or renew for one billingPeriod. Must send exactly `price` wei.\n    function subscribe() external payable {\n        require(msg.value == price, \"Send exact price\");\n        uint256 current = block.timestamp;\n        uint256 newExpiry = expiry[msg.sender];\n        if (newExpiry < current) {\n            // starting a new subscription\n            newExpiry = current + billingPeriod;\n        } else {\n            // extending an active subscription\n            newExpiry = newExpiry + billingPeriod;\n        }\n        expiry[msg.sender] = newExpiry;\n\n        // track funds for creator withdrawal\n        accumulated += msg.value;\n\n        // emit event\n        if (block.timestamp == current) { /* no-op to quiet analyzer */ }\n        emit Subscribed(msg.sender, newExpiry);\n    }\n\n    ///Alias for subscribe  same behavior (semantic convenience)\nfunction renew() external payable {\n    require(msg.value == price, \"Incorrect ETH amount\");\n    this.subscribe(); // Explicitly call via `this`\n    emit Renewed(msg.sender, block.timestamp + billingPeriod);\n}\n\n    ///Cancel subscription immediately. No refunds for remaining time.\n    function cancel() external {\n        expiry[msg.sender] = 0;\n        emit Cancelled(msg.sender, block.timestamp);\n    }\n\n    /* ========== VIEW HELPERS ========== */\n\n    ///Returns whether a given account currently has an active subscription\n    function isActive(address account) public view returns (bool) {\n        return expiry[account] > block.timestamp;\n    }\n\n    ///Seconds remaining for a subscriber (0 if expired)\n    function secondsRemaining(address account) external view returns (uint256) {\n        if (expiry[account] <= block.timestamp) return 0;\n        return expiry[account] - block.timestamp;\n    }\n\n    /* ========== CREATOR ACTIONS ========== */\n\n    ///Withdraw accumulated subscription funds to creator\n    function withdraw() external onlyCreator {\n        uint256 amount = accumulated;\n        require(amount > 0, \"No funds\");\n        accumulated = 0;\n\n        // call pattern to send ETH\n        (bool ok, ) = payable(creator).call{value: amount}(\"\");\n        require(ok, \"Transfer failed\");\n\n        emit Withdrawn(creator, amount);\n    }\n\n    ///Update price (in wei)  only creator\n    function updatePrice(uint256 newPrice) external onlyCreator {\n        require(newPrice > 0, \"Price must be > 0\");\n        uint256 old = price;\n        price = newPrice;\n        emit PriceUpdated(old, newPrice);\n    }\n\n    ///Update billing period (seconds)  only creator\n    function updateBillingPeriod(uint256 newPeriod) external onlyCreator {\n        require(newPeriod > 0, \"Billing period > 0\");\n        uint256 old = billingPeriod;\n        billingPeriod = newPeriod;\n        emit BillingPeriodUpdated(old, newPeriod);\n    }\n\n    /* ========== SAFETY: fallback / receive ========== */\n\n    ///Disallow direct ETH transfers to avoid accidental funds (force use of subscribe())\n    receive() external payable {\n        revert(\"Direct deposits not allowed; call subscribe()\");\n    }\n\n    fallback() external payable {\n        revert(\"Direct deposits not allowed; call subscribe()\");\n    }\n\n}\n\n\n",
  "sourcePath": "C:\\Users\\psurw\\Documents\\GitHub\\BGT4\\contracts\\Subscription.sol",
  "compiler": {
    "name": "solc",
    "version": "0.8.19+commit.7dd6d404.Emscripten.clang"
  },
  "schemaVersion": "3.4.16",
  "updatedAt": "2025-12-10T12:28:52.601Z",
  "networkType": "ethereum",
  "devdoc": {
    "details": "Only creator can change price/billing period or withdraw accumulated funds.",
    "kind": "dev",
    "methods": {},
    "title": "SubscriptionContract  simple ETH-based subscription manager",
    "version": 1
  },
  "userdoc": {
    "kind": "user",
    "methods": {
      "billingPeriod()": {
        "notice": "billing period length in seconds (e.g., 30 days = 30*24*3600)"
      },
      "cancel()": {
        "notice": "Cancel subscription immediately. No refunds for remaining time."
      },
      "constructor": {
        "notice": "_price price in wei for one billingPeriod _billingPeriod length of billing period in seconds"
      },
      "creator()": {
        "notice": "Creator (content owner) who deployed this contract"
      },
      "expiry(address)": {
        "notice": "mapping of subscriber -> subscription expiry timestamp (unix)"
      },
      "isActive(address)": {
        "notice": "Returns whether a given account currently has an active subscription"
      },
      "price()": {
        "notice": "price per billingPeriod (in wei)"
      },
      "renew()": {
        "notice": "Alias for subscribe  same behavior (semantic convenience)"
      },
      "secondsRemaining(address)": {
        "notice": "Seconds remaining for a subscriber (0 if expired)"
      },
      "subscribe()": {
        "notice": "Subscribe or renew for one billingPeriod. Must send exactly `price` wei."
      },
      "updateBillingPeriod(uint256)": {
        "notice": "Update billing period (seconds)  only creator"
      },
      "updatePrice(uint256)": {
        "notice": "Update price (in wei)  only creator"
      },
      "withdraw()": {
        "notice": "Withdraw accumulated subscription funds to creator"
      }
    },
    "notice": "Deployed by a Creator who defines price & billing period. Subscribers pay ETH to subscribe/renew.",
    "version": 1
  }
}